:020000040000FA
:08000000803102288731E02F56
:10011200FE0012001E00FE0B8A280034F401F501D5
:10012200701C9428952899287208F4077308F53DE5
:100132000130F235F30D890B9A280130F136F00CBB
:10014200890B9F2870087104031DA828A9289128EB
:100152007508F1007408F0000800F800F401F501D8
:100162007008F200F3017208F6007308F700781CB9
:10017200BB28BC28C0287608F4077708F53D013073
:10018200F635F70D890BC1280310F80C7808031D0A
:10019200CB28CC28B8287508F1007408F0000800B4
:1001A2000434003404340034083400340834003495
:1001B200083400340A340034043400340434003483
:1001C2000834003408340034083400340A3400346B
:1001D2000434003404340034083400340834003465
:1001E2000834003408340034083400340434003451
:1001F2000434003408340034083400340834003441
:100202000C3400340634013406340134263401340B
:10021200063401345D3401344A3401340634013485
:10022200063401342634013406340134883401346E
:100232005D34013406340134063401340B340234A3
:10024200B83401345D3401344A3401342634013483
:10025200D2340134D2340134B83401345D3401343F
:10026200883401345D340134F601F11F39293A2909
:100272004129F009F109F00A0319F10AF601F60A17
:10028200F31F442945294E29F209F309F20A0319F9
:10029200F30A0130F4007408F606F701F801700859
:1002A20071040319552956298529F501F50A622990
:1002B2000130F035F10D890B5A290130F400740830
:1002C200F507F11F6529662959290130F735F80D1F
:1002D200890B672971087302031D71297008720264
:1002E200031C742975297A297008F2027108F33BFC
:1002F20077140130F136F00C890B7B290130F502BD
:10030200031D8429852966297608031989298A29E2
:100312008F29F709F809F70A0319F80A7808F10092
:100322007708F000080003102000560D570DD80082
:100332005808DE005E08031D9F29A029A929003064
:10034200D7000030D6000030D5000030D400082A93
:100352005408D8005508D9005608DA005708DB00BF
:100362001F30DB36DA0CD90CD80C890BB2295808AD
:10037200DC005C08DD00D617FF30D405FF30D50560
:10038200FF30D6050030D7059630DE02DE1FCA29BF
:10039200CB29E3295E08803A973E0318D129D22956
:1003A200D329A0290130D736D60CD50CD40C890B11
:1003B200D4290130D8005808DE07031DE129E229BB
:1003C200D329F82920305E02031CE829E929F32900
:1003D200A0290130D435D50DD60DD70D890BEB29C7
:1003E2000130DE025E08031DF729F829EA295D08BB
:1003F2000319FC29FD29082AD409D509D609D709E8
:10040200D40A0319D50A0319D60A0319D70A080010
:10041200F800780803190E2A0F2A232AF31F122A3A
:10042200132A232A7009FA007109FB007209FC00E1
:100432007309FD00FA0A0319FB0A0319FC0A0319DE
:10044200FD0A2B2A7308FD007208FC007108FB00EC
:100452007008FA007308720471047004031D322AD2
:10046200332A3C2A0030F3000030F2000030F10061
:100472000030F000B42A9630F4007408F9004C2AD7
:100482000130F4007408F9070130FD36FC0CFB0C56
:10049200FA0C890B462AFE307D05031D512A522A89
:1004A200412A662A0130F4007408F9070130FA077C
:1004B2000030FB3D0030FC3D0030FD3D0130FD369B
:1004C200FC0CFB0CFA0C890B602AFF307D05031D26
:1004D2006B2A6C2A532A762A0130F9020130FA3546
:1004E200FB0DFC0DFD0D890B702AFC1B792A7A2A63
:1004F200802A0230790203187F2A802A6D2A79180D
:10050200832A842A8C2AFF30FA05FF30FB057F30CC
:10051200FC05FF30FD050310F90C7908F400F50124
:10052200F601F7011830F435F50DF60DF70D890BCC
:10053200942A7408FA047508FB047608FC04770808
:10054200FD0478080319A62AA72AAC2AF31FAA2AAF
:10055200AB2AAC2AFD177D08F3007C08F2007B0869
:10056200F1007A08F00008002100991419101917F7
:10057200991619129915A030860001308700A03013
:1005820084000030850032302000DF0016001A009F
:10059200DF0BC72A2030860002308700203084001B
:1005A200013085003230DF0016001A00DF0BD52A39
:1005B2002100951215128B168D1320008D13200029
:1005C200E701E8013F302000A7008030A60000309C
:1005D200A5000030A4006735A03E86008701403F99
:1005E200DF00413FE0005F08F0006008F100F20127
:1005F200F301003082310922823173082000A30006
:100602007208A2007108A1007008A0008331D523EE
:10061200823120002308C1002208C0002108BF0047
:100622002008BE004930BD007430BC002430BB003D
:100632000030BA0085318925823120003D08D7007B
:100642003C08D6003B08D5003A08D40081319421F9
:100652008231200055082100D300200054082100D7
:10066200D2000230F0000030F1005308F3005208CB
:10067200F20081313521823171082000E2007008D8
:10068200E1001530F0000030F1006208F30061086B
:10069200F20081313521823171082100D3007008C6
:1006A200D2002000E301E401942B8D17E501E6015D
:1006B200602B000001302000E5070030E63D6608AF
:1006C200803ADF0021005308803A20005F02031DB8
:1006D2006E2B2100520820006502031C712B722B25
:1006E2005A2B20008D13E501E6017D2B000001301D
:1006F2002000E5070030E63D6608803ADF00210071
:100702005308803A20005F02031D8B2B2100520800
:1007120020006502031C8E2B8F2B772B01302000CB
:10072200E3070030E43D6735203E86000130870054
:10073200403FF000413FF1001E30F2000030F30074
:1007420080318F208231710820006402031DAB2B9F
:1007520070086302031CAE2BAF2B562BC83000323D
:10076200890BB02B01302000E7070030E83D680814
:10077200803ADF0080305F02031DC12B193067020F
:10078200031CC42BC52BE32A06302000E0001330E3
:10079200DF00AD30890BCB2BDF0BCB2BE00BCB2B50
:1007A2000032E02A80310228200027088039A80080
:1007B2002808B1002735A8002808B800A61FE22B98
:1007C200E32BE42B381438080319E82BE92BF92B17
:1007D200380A031DED2BEE2BF62B0030A70000305C
:1007E200A6000030A5000030A400A617A701012C26
:1007F2000030A7000030A6000030A5000030A400A1
:1008020023088039A8002808B1062335A800280843
:10081200B900A21F0D2C0E2C0F2C39143908031904
:10082200132C142C242C390A031D182C192C212CBE
:100832000030A3000030A2000030A1000030A00070
:10084200A217A3012C2C0030A3000030A20000301C
:10085200A1000030A0002308220421042004031D6B
:10086200332C342C4D2C0030A7000030A600003071
:10087200A5000030A4008030A6047F30A704310810
:10088200A8002808A7042708A3002608A200250814
:10089200A1002408A000882D3808031D512C522CD9
:1008A2005B2C0030A3000030A2000030A100003019
:1008B200A000882D3808A800A9012908AB00390832
:1008C2002802AA00031CAB032A087F3EB2000030B4
:1008D2002B3DB3002708B0002608AF002508AE0064
:1008E2002408AD000030A7000030A6000030A500AB
:1008F2000030A4000030B7000030B6000030B50070
:100902000030B400B901C32C39080319892C8A2C90
:10091200A42C0130AD35AE0DAF0DB00D890B8B2C73
:100922000130A435A50DA60DA70D890B922CB71F7A
:100932009B2C9C2C9D2C24140130B435B50DB60D86
:10094200B70D890B9E2C23083002031DB22C2208FE
:100952002F02031DB22C21082E02031DB22C2008E7
:100962002D02031CB52CB62CBF2C37172008AD0264
:100972002108AE3B2208AF3B2308B03B0130A80060
:100982002808B9071A303902031CC82CC92C852C37
:1009920030082F042E042D040319D02CD12CEA2C5C
:1009A2003414EA2C0130A435A50DA60DA70D890B30
:1009B200D42CB71FDD2CDE2CDF2C24140130B435EF
:1009C200B50DB60DB70D890BE02CFF30B207FF3025
:1009D200B33DA61FED2CEE2CD32CB901B71FF22C80
:1009E200F32C0F2DFF303405A800FF303505A90088
:1009F200FF303605AA007F303705AB002B082A04EA
:100A0200290428040319062D072D0A2DB901B90A54
:100A12000F2D241C0D2D0E2D0F2D072D3908031916
:100A2200132D142D3C2D0130A4070030A53D0030BC
:100A3200A63D0030A73D271C1F2D202D3C2D24084C
:100A4200A8002508A9002608AA002708AB00013043
:100A5200AC00AB37AA0CA90CA80CAC0B2A2D2B08A6
:100A6200A7002A08A6002908A5002808A40001302A
:100A7200B2070030B33D3308803AA8008030280224
:100A8200031D452DFF303202031C482D492D562DE2
:100A9200FF302000B2000030B3000030A700003069
:100AA200A6000030A5000030A40020003308803AE0
:100AB200A80080302802031D602D01303202031885
:100AC200632D642D702D2000B201B3010030A70008
:100AD2000030A6000030A5000030A400B1012000C3
:100AE2003208A8002808B800381C782D792D7B2DF3
:100AF200A6177F2D7F30A8002808A6053836A80043
:100B02002808A7003108A8002808A704442C0800D8
:100B120020003D088039C2004208C7003D35C200AE
:100B22004208CD00BC1F962D972D982D4D144D08CF
:100B320003199C2D9D2DAC2D4D0A031DA12DA22D17
:100B4200AA2D0030BD000030BC000030BB000030D8
:100B5200BA00BC17B42D0030BD000030BC0000301C
:100B6200BB000030BA0041088039C2004208C70603
:100B72004135C2004208CC00C01FC02DC12DC22D7C
:100B82004C144C080319C62DC72DD62D4C0A031D33
:100B9200CB2DCC2DD42D0030C1000030C000003050
:100BA200BF000030BE00C017DE2D0030C100003093
:100BB200C0000030BF000030BE004C080319E22D17
:100BC200E32DE82D4D08031DE72DE82DF12D003012
:100BD200BD000030BC000030BB000030BA00DF2F87
:100BE2003A08C2004208F00040088031AE20853148
:100BF20071082000D3007008D2005208C200C3015D
:100C0200C401C5014508CB004408CA004308C90015
:100C12004208C8005308C200C301C401C501450807
:100C2200D1004408D0004308CF004208CE003B0860
:100C3200C2004208F0003F088031AE2085317108C1
:100C42002000D3007008D2005208C200C301C401C0
:100C5200C5014208C8074308C93D4408CA3D4508C2
:100C6200CB3D5308C200C301C401C5014208CE07EF
:100C72004308CF3D4408D03D4508D13D3C08C20061
:100C82004208F0003E088031AE2085317108200014
:100C9200D3007008D2005208C200C301C401C501CA
:100CA2004208C8074308C93D4408CA3D4508CB3D30
:100CB2005308C200C301C401C5014208CE0743085C
:100CC200CF3D4408D03D4508D13D0830C835C90D57
:100CD200CA0DCB0D890B672E3B08C2004208F000FB
:100CE2003E088031AE20853171082000D3007008A3
:100CF200D2005208C8075308C93D0030CA3DCB3D57
:100D02003A08C2004208F0003F088031AE20853127
:100D120071082000D3007008D2005208C807530897
:100D2200C93D0030CA3DCB3D0830C835C90DCA0D9A
:100D3200CB0D890B962E3A08C2004208F0003E08FD
:100D42008031AE20853171082000D3007008D200B6
:100D52005208C8075308C93D0030CA3DCB3D3B0885
:100D6200C2004208F00040088031AE20853171088F
:100D72002000D3007008D2005208CE075308CF3D9E
:100D82000030D03DD13D3C08C2004208F0003F088F
:100D92008031AE20853171082000D3007008D20066
:100DA2005208CE075308CF3D0030D03DD13D3C081C
:100DB200C2004208F00040088031AE20853171083F
:100DC2002000D3007008D2005208C2005308C300AA
:100DD200C401C5010830C235C30DC40DC50D890B50
:100DE200EC2E4208CE074308CF3D4408D03D4508CB
:100DF200D13D4808C2004908C3004A08C4004B0854
:100E0200C5001830C536C40CC30CC20C890B032FA5
:100E12004208CE074308CF3D4408D03D4508D13DA6
:100E22000830C835C90DCA0DCB0D890B122F4D08DC
:100E32004C07C200C301C30D4208823ED200FF30FC
:100E4200433DD3003B2F0130CE35CF0DD00DD10D18
:100E5200890B252FCB1F2E2F2F2F302F4E14013011
:100E6200C835C90DCA0DCB0D890B312FFF30D20702
:100E7200FF30D33DD01F3E2F3F2F242FCC01CB1F5D
:100E8200432F442F602FFF304805C200FF30490531
:100E9200C300FF304A05C4007F304B05C50045083A
:100EA2004404430442040319572F582F5B2FCC01EB
:100EB200CC0A602F4E1C5E2F5F2F602F582F4C08DC
:100EC2000319642F652F8D2F0130CE070030CF3DDF
:100ED2000030D03D0030D13D511C702F712F8D2F2D
:100EE2004E08C2004F08C3005008C4005108C50094
:100EF2000130C600C537C40CC30CC20CC60B7B2F15
:100F02004508D1004408D0004308CF004208CE0073
:100F12000130D2070030D33D5308803AC2008030FE
:100F22004202031D962FFF305202031C992F9A2F63
:100F3200A42F7F302000D1008030D0000030CF00BD
:100F42000030CE00D32F20005308803AC2008030F8
:100F52004202031DAE2F013052020318B12FB22FED
:100F6200BD2F00302000D1000030D0000030CF0073
:100F72000030CE00C701D32F20005208C200420821
:100F8200CD00FF30CE05FF30CF057F30D0050030D9
:100F9200D1054D1CCD2FCE2FCF2FD0174D36C200ED
:100FA2004208D1004708C2004208D1045108BD00DE
:100FB2005008BC004F08BB004E08BA0008000330BE
:100FC200840081308500A0308600013087003230F5
:100FD200803189208731D1308400803085002030F3
:100FE2008600023087003230803189208731E90162
:0E0FF200EA012100D201D30120008231B52A8C
:020000040001F9
:04000E00E7FFFFFF0A
:00000001FF
